:100000000C9434000C9451000C9451000C94510049
:100010000C9451000C9451000C9451000C9451001C
:100020000C9451000C9451000C9451000C9451000C
:100030000C9451000C9451000C9451000C945100FC
:100040000C9451000C9451000C9451000C945100EC
:100050000C9451000C9451000C9451000C945100DC
:100060000C9453000C94510011241FBECFEFD8E024
:10007000DEBFCDBF11E0A0E0B1E0ECE4F4E002C0EF
:1000800005900D92A231B107D9F721E0A2E1B1E0CC
:1000900001C01D92AB31B207E1F70E9473010C94CD
:1000A00024020C9400001F920F920FB60F9211249D
:1000B0006F927F928F929F92AF92BF92CF92DF9278
:1000C000EF92FF920F931F932F933F934F935F9362
:1000D0006F937F938F939F93AF93BF93EF93FF9310
:1000E000CF93DF93CDB7DEB72D97DEBFCDBF89E0CD
:1000F000E0E0F1E0DE01119601900D928A95E1F7C2
:1001000080E48A8781E48B8786E58C8782E58D870A
:100110008091B900887F883019F0883101F1BEC024
:1001200080911201823009F4B9C08091B90041E494
:1001300063E171E00E94A5018CE78093BB0085E834
:100140008093BC00ECEBF0E080818823ECF7809199
:10015000B90042E463E171E00E94A5019FC0809173
:10016000B90043E463E171E00E94A50180911201AE
:10017000811151C08091B90044E463E171E00E94B3
:10018000A501CE0101966C010F2EF5E4FF2EF02D96
:100190000F2EFBEB8F2E912CF02D0CEB10E00F2E81
:1001A000F4E8EF2EF02D0F2EF9EBAF2EB12CF02D41
:1001B000F6018081D4018C93D801EC92D8018C9106
:1001C0008823E4F7BFEFCB1ADB0A8081823531F454
:1001D000EFE4F3EC3197F1F700C00000D5018C910A
:1001E0004F2D63E171E00E94A501F394BEE4FB1280
:1001F000DFCF81E08093120140E563E171E00E946E
:10020000A50185E98093BC00E3ECF9E03197F1F7B3
:1002100000C0000043C0813009F040C040E763E106
:1002200071E00E94A5018E01065F1F4F5E01FEE096
:10023000AF0EB11C0F2EF9EBEF2EF12CF02D0F2E7F
:10024000FBEBCF2ED12CF02D0F2EFCEB8F2E912C13
:10025000F02D0F2EF4E86F2EF02DD8017D908D013A
:10026000F7018081472D63E171E00E94A501D6016D
:100270007C92F4016082D4018C918823E4F70A1502
:100280001B0559F782E08093120185E98093BC0039
:10029000E3ECF9E03197F1F700C000002D960FB6BE
:1002A000F894DEBF0FBECDBFDF91CF91FF91EF91EC
:1002B000BF91AF919F918F917F916F915F914F917E
:1002C0003F912F911F910F91FF90EF90DF90CF9072
:1002D000BF90AF909F908F907F906F900F900FBEC8
:1002E0000F901F90189514B882E085B98FEF809316
:1002F000B800E9EBF0E010821092C00088E1809332
:10030000C10086E08093C20089E190E09093C5002F
:100310008093C400789483B1808141E663E171E009
:100320000E94A50185EA8093BC00ECEBF0E080819F
:100330008823ECF7A9EBB0E0ECEBF0E095EA1C9237
:10034000908380818823ECF7FACF0F931F93CF938C
:10035000DF93CDB7DEB72C970FB6F894DEBF0FBE94
:10036000CDBF99E0E9E0F1E0DE01119601900D9238
:100370009A95E1F720E332E63B872A871C868B01BA
:10038000FB013896DB011D92AE17BF07E1F788230A
:1003900059F090E0DB01A90FB11D282F21702C939B
:1003A00086959F5F8111F6CFA0ECB0E08C9185FF20
:1003B000FDCF4093C600BE016F5F7F4F9B018291CE
:1003C000805DD9018D939D010E171F07C1F7E0ECE9
:1003D000F0E0808185FFFDCF8A858093C600E0EC48
:1003E000F0E0808185FFFDCF8B858093C600AE0154
:1003F000475F5F4FE0ECF0E026EC30E0808185FF66
:10040000FDCFDB018D91BD01D9018C9346175707B4
:10041000A9F7E0ECF0E0808185FFFDCF8AE08093D2
:10042000C600E0ECF0E0808185FFFDCF8DE0809399
:10043000C6002C960FB6F894DEBF0FBECDBFDF917D
:0C044000CF911F910F910895F894FFCF09
:10044C0038391470526C380C013030303030303058
:02045C0030006E
:00000001FF
