:100000000C9434000C9451000C9451000C94510049
:100010000C9451000C9451000C9451000C9451001C
:100020000C9451000C9451000C9451000C9451000C
:100030000C9451000C9451000C9451000C945100FC
:100040000C9451000C9451000C9451000C945100EC
:100050000C9451000C9451000C9451000C945100DC
:100060000C9453000C94510011241FBECFEFD8E024
:10007000DEBFCDBF11E0A0E0B1E0E4E0F7E002C0F8
:1000800005900D92AC31B107D9F721E0ACE1B1E0B8
:1000900001C01D92A133B207E1F70E9476020C94D1
:1000A00080030C9400001F920F920FB60F92112440
:1000B0007F928F929F92AF92BF92CF92DF92EF92F8
:1000C000FF920F931F932F933F934F935F936F93E1
:1000D0007F938F939F93AF93BF93EF93FF93CF93B0
:1000E000DF93CDB7DEB72F97DEBFCDBF89E0E4E069
:1000F000F1E0DE01119601900D928A95E1F786E01C
:10010000EDE0F1E0DE011A9601900D928A95E1F79B
:1001100040E768E271E080911F010E94D302809164
:10012000B90043E768E271E00E94D30280911C01AC
:10013000813009F0B5C18091B900887F883171F1B3
:10014000803409F416C1883009F0AAC148E368E296
:1001500071E080911F010E94D30280911F018230C3
:1001600050F48CE78093BB0085E88093BC0081E06D
:1001700080931E0195C1833039F488E88093BB00D9
:1001800085E88093BC008CC1843009F089C189E87E
:100190008093BB0085E88093BC0082C180911F01E1
:1001A000811143C0CE0101964C015E019AE0A90E77
:1001B000B11C0F2EF9EBCF2ED12CF02D0F2EFBEB17
:1001C000EF2EF12CF02D0CEB10E00F2EF5E87F2E2A
:1001D000F02DD6018C9149E468E271E00E94D302CF
:1001E000F4018081D7018C93D8017C92D8018C9145
:1001F0008823E4F7BFEF8B1A9B0A8081823531F4A4
:10020000EFE4F3EC3197F1F700C000008A149B048F
:1002100001F781E080931F0185E98093BC00ECEB3E
:10022000F0E0808184FFFDCF3BC1813009F07AC0CE
:1002300080911E01813009F033C143E568E271E02D
:100240000E94D3025E01FAE0AF0EB11CF12C0F2E1A
:10025000FBEBCF2ED12CF02D0F2EFAE08F2EF02DB0
:100260000F2EF4E6EF2EF02D0CEB10E00F2EF5E83C
:100270009F2EF02D83E0F81214C0809130016E2D76
:100280000E9452039D85890FD6018C9320913001E5
:10029000822F0E9452038E9D201911242093300139
:1002A0001EC0B4E0FB120AC080913001682D0E948C
:1002B00052039E85890FF601808311C0F5E0FF127D
:1002C0000AC080913001682D0E9452038F85890FEA
:1002D000D6018C9304C0F5018081D6018C93F8017E
:1002E0009082D8018C918823E4F7F601408168E27E
:1002F00071E080911F010E94D302F394FFEFAF1AC7
:10030000BF0A86E0F812B6CF83E080931F011092F7
:100310001D0185E98093BC00ECEBF0E0808184FF57
:10032000FDCFBEC0833009F0BBC08CE28093BB0020
:1003300085E88093BC00ECEBF0E080818823ECF74B
:100340008DE08093BB0085E88093BC00ECEBF0E08F
:1003500080818823ECF710921D0184E080931F01B7
:1003600085E98093BC00ECEBF0E0808184FFFDCF59
:1003700097C0ECEBF0E080818823ECF78091BB0024
:1003800044E268E271E00E94D30285EC8093BC00F5
:10039000ECEBF0E080818823ECF70BEB10E0D80168
:1003A0008C914BE268E271E00E94D302F8018081F7
:1003B0008093270185EC8093BC00ECEBF0E080811A
:1003C0008823ECF70BEB10E0D8018C914DE268E24A
:1003D00071E00E94D302F80180818093220185ECB4
:1003E0008093BC00E0912701F0E0FE2FEE27809182
:1003F0002201E80FF11DF0932101E09320012091EB
:100400000001309101014091020150910301AFEAD6
:10041000B0E00E945E039B01AC01DF010E94690312
:100420008D52809330014CE368E271E00E94D30268
:10043000ECEBF0E080818823ECF74DE368E271E0BB
:10044000809130010E94D30285EC8093BC00ECEBDC
:10045000F0E080818823ECF74FE268E271E0809160
:1004600030010E94D30285EC8093BC00ECEBF0E0FD
:1004700080818823ECF785E88093BC00ECEBF0E00A
:1004800080818823ECF785E98093BC00ECEBF0E0F9
:10049000808184FFFDCF10921D0181E080931F01B8
:1004A00010921C012F960FB6F894DEBF0FBECDBF81
:1004B000DF91CF91FF91EF91BF91AF919F918F917C
:1004C0007F916F915F914F913F912F911F910F916C
:1004D000FF90EF90DF90CF90BF90AF909F908F9064
:1004E0007F900F900FBE0F901F90189514B882E068
:1004F00085B98FEF8093B8001092B9001092C000B8
:1005000088E18093C10086E08093C20089E190E099
:100510009093C5008093C400789481E080931C017F
:1005200085EA8093BC00ECEBF0E080818823ECF757
:10053000C1E00CEB10E0D5EAC0931C0180911F01D3
:10054000813079F480911D018111F6CF40E568E298
:1005500071E08C2F0E94D302F801D083C0931D015B
:10056000EBCF833079F480911D018111E5CF40E517
:1005700068E271E083E00E94D302F801D083C09367
:100580001D01DACF8430C1F680911D018111D4CFD5
:1005900040E568E271E084E00E94D302F801D08374
:1005A000C0931D01C9CF0F931F93CF93DF93CDB796
:1005B000DEB72C970FB6F894DEBF0FBECDBF99E023
:1005C000E3E1F1E0DE01119601900D929A95E1F7D9
:1005D00020E332E63B872A871C868B01FB01389695
:1005E000DB011D92AE17BF07E1F7882359F090E0B9
:1005F000DB01A90FB11D282F21702C9386959F5FD9
:100600008111F6CFA0ECB0E08C9185FFFDCF409337
:10061000C600BE016F5F7F4F9B018291805DD90153
:100620008D939D010E171F07C1F7E0ECF0E080816C
:1006300085FFFDCF8A858093C600E0ECF0E08081E5
:1006400085FFFDCF8B858093C600AE01475F5F4F6E
:10065000E0ECF0E026EC30E0808185FFFDCFDB01AF
:100660008D91BD01D9018C9346175707A9F7E0EC8E
:10067000F0E0808185FFFDCF8AE08093C600E0EC4A
:10068000F0E0808185FFFDCF8DE08093C6002C9641
:100690000FB6F894DEBF0FBECDBFDF91CF911F9193
:1006A0000F910895991B79E004C0991F961708F0DF
:1006B000961B881F7A95C9F7809508950E9471034B
:1006C000A59F900DB49F900DA49F800D911D1124A6
:1006D0000895B7FF0C945E030E945E03821B930B88
:1006E0000895A29FB001B39FC001A39F700D811D0B
:1006F0001124911DB29F700D811D1124911D08952B
:04070000F894FFCF9B
:100704000100000038391470526C380C0180C0406C
:0C071400303030303030303030303000C9
:00000001FF
